{
  "_format": "hh-sol-artifact-1",
  "contractName": "SimpleCoffeeSupplyChain",
  "sourceName": "contracts/Smartcoffee.sol",
  "abi": [
    {
      "anonymous": false,
      "inputs": [
        {
          "indexed": false,
          "internalType": "uint256",
          "name": "orderId",
          "type": "uint256"
        },
        {
          "indexed": false,
          "internalType": "address",
          "name": "producer",
          "type": "address"
        },
        {
          "indexed": false,
          "internalType": "address",
          "name": "consumer",
          "type": "address"
        }
      ],
      "name": "OrderCreated",
      "type": "event"
    },
    {
      "anonymous": false,
      "inputs": [
        {
          "indexed": false,
          "internalType": "uint256",
          "name": "orderId",
          "type": "uint256"
        },
        {
          "indexed": false,
          "internalType": "enum SimpleCoffeeSupplyChain.OrderStatus",
          "name": "status",
          "type": "uint8"
        }
      ],
      "name": "OrderStatusUpdated",
      "type": "event"
    },
    {
      "anonymous": false,
      "inputs": [
        {
          "indexed": false,
          "internalType": "uint256",
          "name": "orderId",
          "type": "uint256"
        },
        {
          "indexed": false,
          "internalType": "address",
          "name": "recipient",
          "type": "address"
        },
        {
          "indexed": false,
          "internalType": "uint256",
          "name": "amount",
          "type": "uint256"
        }
      ],
      "name": "PaymentExecuted",
      "type": "event"
    },
    {
      "anonymous": false,
      "inputs": [
        {
          "indexed": false,
          "internalType": "address",
          "name": "userAddress",
          "type": "address"
        },
        {
          "indexed": false,
          "internalType": "enum SimpleCoffeeSupplyChain.Role",
          "name": "role",
          "type": "uint8"
        }
      ],
      "name": "UserRegistered",
      "type": "event"
    },
    {
      "inputs": [
        {
          "internalType": "address",
          "name": "_consumer",
          "type": "address"
        },
        {
          "internalType": "uint256",
          "name": "_amount",
          "type": "uint256"
        }
      ],
      "name": "createOrder",
      "outputs": [],
      "stateMutability": "nonpayable",
      "type": "function"
    },
    {
      "inputs": [
        {
          "internalType": "uint256",
          "name": "_orderId",
          "type": "uint256"
        }
      ],
      "name": "getOrder",
      "outputs": [
        {
          "components": [
            {
              "internalType": "uint256",
              "name": "orderId",
              "type": "uint256"
            },
            {
              "internalType": "address",
              "name": "producer",
              "type": "address"
            },
            {
              "internalType": "address",
              "name": "supplier",
              "type": "address"
            },
            {
              "internalType": "address",
              "name": "distributor",
              "type": "address"
            },
            {
              "internalType": "address",
              "name": "retailer",
              "type": "address"
            },
            {
              "internalType": "address",
              "name": "consumer",
              "type": "address"
            },
            {
              "internalType": "enum SimpleCoffeeSupplyChain.OrderStatus",
              "name": "status",
              "type": "uint8"
            },
            {
              "internalType": "uint256",
              "name": "amount",
              "type": "uint256"
            }
          ],
          "internalType": "struct SimpleCoffeeSupplyChain.Order",
          "name": "",
          "type": "tuple"
        }
      ],
      "stateMutability": "view",
      "type": "function"
    },
    {
      "inputs": [
        {
          "internalType": "address",
          "name": "_user",
          "type": "address"
        }
      ],
      "name": "getUserOrders",
      "outputs": [
        {
          "internalType": "uint256[]",
          "name": "",
          "type": "uint256[]"
        }
      ],
      "stateMutability": "view",
      "type": "function"
    },
    {
      "inputs": [],
      "name": "orderCounter",
      "outputs": [
        {
          "internalType": "uint256",
          "name": "",
          "type": "uint256"
        }
      ],
      "stateMutability": "view",
      "type": "function"
    },
    {
      "inputs": [
        {
          "internalType": "uint256",
          "name": "",
          "type": "uint256"
        }
      ],
      "name": "orders",
      "outputs": [
        {
          "internalType": "uint256",
          "name": "orderId",
          "type": "uint256"
        },
        {
          "internalType": "address",
          "name": "producer",
          "type": "address"
        },
        {
          "internalType": "address",
          "name": "supplier",
          "type": "address"
        },
        {
          "internalType": "address",
          "name": "distributor",
          "type": "address"
        },
        {
          "internalType": "address",
          "name": "retailer",
          "type": "address"
        },
        {
          "internalType": "address",
          "name": "consumer",
          "type": "address"
        },
        {
          "internalType": "enum SimpleCoffeeSupplyChain.OrderStatus",
          "name": "status",
          "type": "uint8"
        },
        {
          "internalType": "uint256",
          "name": "amount",
          "type": "uint256"
        }
      ],
      "stateMutability": "view",
      "type": "function"
    },
    {
      "inputs": [
        {
          "internalType": "enum SimpleCoffeeSupplyChain.Role",
          "name": "_role",
          "type": "uint8"
        }
      ],
      "name": "registerUser",
      "outputs": [],
      "stateMutability": "nonpayable",
      "type": "function"
    },
    {
      "inputs": [
        {
          "internalType": "uint256",
          "name": "_orderId",
          "type": "uint256"
        },
        {
          "internalType": "enum SimpleCoffeeSupplyChain.OrderStatus",
          "name": "_status",
          "type": "uint8"
        }
      ],
      "name": "updateOrderStatus",
      "outputs": [],
      "stateMutability": "nonpayable",
      "type": "function"
    },
    {
      "inputs": [
        {
          "internalType": "address",
          "name": "",
          "type": "address"
        },
        {
          "internalType": "uint256",
          "name": "",
          "type": "uint256"
        }
      ],
      "name": "userOrders",
      "outputs": [
        {
          "internalType": "uint256",
          "name": "",
          "type": "uint256"
        }
      ],
      "stateMutability": "view",
      "type": "function"
    },
    {
      "inputs": [
        {
          "internalType": "address",
          "name": "",
          "type": "address"
        }
      ],
      "name": "users",
      "outputs": [
        {
          "internalType": "address",
          "name": "userAddress",
          "type": "address"
        },
        {
          "internalType": "enum SimpleCoffeeSupplyChain.Role",
          "name": "role",
          "type": "uint8"
        },
        {
          "internalType": "bool",
          "name": "isRegistered",
          "type": "bool"
        }
      ],
      "stateMutability": "view",
      "type": "function"
    }
  ],
  "bytecode": "0x608060405234801561001057600080fd5b50611e63806100206000396000f3fe608060405234801561001057600080fd5b50600436106100935760003560e01c8063a85c38ef11610066578063a85c38ef14610130578063a87430ba14610167578063aab3196d14610199578063b789bf52146101b5578063d09ef241146101d357610093565b806302b8c8cd1461009857806363c69f08146100b45780636c16b545146100e4578063856652e914610100575b600080fd5b6100b260048036038101906100ad91906113cf565b610203565b005b6100ce60048036038101906100c9919061145a565b6103ee565b6040516100db919061154f565b60405180910390f35b6100fe60048036038101906100f9919061159d565b610485565b005b61011a6004803603810190610115919061159d565b6108e3565b60405161012791906115ec565b60405180910390f35b61014a60048036038101906101459190611607565b610914565b60405161015e9897969594939291906116ba565b60405180910390f35b610181600480360381019061017c919061145a565b610a09565b6040516101909392919061179b565b60405180910390f35b6101b360048036038101906101ae91906117f7565b610a6d565b005b6101bd610f4b565b6040516101ca91906115ec565b60405180910390f35b6101ed60048036038101906101e89190611607565b610f51565b6040516101fa91906118f7565b60405180910390f35b600160003373ffffffffffffffffffffffffffffffffffffffff1673ffffffffffffffffffffffffffffffffffffffff16815260200190815260200160002060000160159054906101000a900460ff1615610293576040517f08c379a000000000000000000000000000000000000000000000000000000000815260040161028a90611970565b60405180910390fd5b60405180606001604052803373ffffffffffffffffffffffffffffffffffffffff1681526020018260048111156102cd576102cc611643565b5b815260200160011515815250600160003373ffffffffffffffffffffffffffffffffffffffff1673ffffffffffffffffffffffffffffffffffffffff16815260200190815260200160002060008201518160000160006101000a81548173ffffffffffffffffffffffffffffffffffffffff021916908373ffffffffffffffffffffffffffffffffffffffff16021790555060208201518160000160146101000a81548160ff0219169083600481111561038a57610389611643565b5b021790555060408201518160000160156101000a81548160ff0219169083151502179055509050507f8e18574f8a7333e6a87112742a55853a643e2f0550f4e1a3a2c3f1bb2994441d33826040516103e3929190611990565b60405180910390a150565b6060600360008373ffffffffffffffffffffffffffffffffffffffff1673ffffffffffffffffffffffffffffffffffffffff16815260200190815260200160002080548060200260200160405190810160405280929190818152602001828054801561047957602002820191906000526020600020905b815481526020019060010190808311610465575b50505050509050919050565b600080600481111561049a57610499611643565b5b600160003373ffffffffffffffffffffffffffffffffffffffff1673ffffffffffffffffffffffffffffffffffffffff16815260200190815260200160002060000160149054906101000a900460ff1660048111156104fc576104fb611643565b5b1461053c576040517f08c379a000000000000000000000000000000000000000000000000000000000815260040161053390611a05565b60405180910390fd5b60008081548092919061054e90611a54565b919050555060405180610100016040528060005481526020013373ffffffffffffffffffffffffffffffffffffffff168152602001600073ffffffffffffffffffffffffffffffffffffffff168152602001600073ffffffffffffffffffffffffffffffffffffffff168152602001600073ffffffffffffffffffffffffffffffffffffffff1681526020018473ffffffffffffffffffffffffffffffffffffffff1681526020016000600381111561060a57610609611643565b5b81526020018381525060026000805481526020019081526020016000206000820151816000015560208201518160010160006101000a81548173ffffffffffffffffffffffffffffffffffffffff021916908373ffffffffffffffffffffffffffffffffffffffff16021790555060408201518160020160006101000a81548173ffffffffffffffffffffffffffffffffffffffff021916908373ffffffffffffffffffffffffffffffffffffffff16021790555060608201518160030160006101000a81548173ffffffffffffffffffffffffffffffffffffffff021916908373ffffffffffffffffffffffffffffffffffffffff16021790555060808201518160040160006101000a81548173ffffffffffffffffffffffffffffffffffffffff021916908373ffffffffffffffffffffffffffffffffffffffff16021790555060a08201518160050160006101000a81548173ffffffffffffffffffffffffffffffffffffffff021916908373ffffffffffffffffffffffffffffffffffffffff16021790555060c08201518160050160146101000a81548160ff021916908360038111156107bf576107be611643565b5b021790555060e08201518160060155905050600360003373ffffffffffffffffffffffffffffffffffffffff1673ffffffffffffffffffffffffffffffffffffffff1681526020019081526020016000206000549080600181540180825580915050600190039060005260206000200160009091909190915055600360008473ffffffffffffffffffffffffffffffffffffffff1673ffffffffffffffffffffffffffffffffffffffff16815260200190815260200160002060005490806001815401808255809150506001900390600052602060002001600090919091909150557fd4e0aaf5be9b8773c644dfebba8b63f878965712ad8589d85ca4bc9d1b671e2c60005433856040516108d693929190611a9c565b60405180910390a1505050565b600360205281600052604060002081815481106108ff57600080fd5b90600052602060002001600091509150505481565b60026020528060005260406000206000915090508060000154908060010160009054906101000a900473ffffffffffffffffffffffffffffffffffffffff16908060020160009054906101000a900473ffffffffffffffffffffffffffffffffffffffff16908060030160009054906101000a900473ffffffffffffffffffffffffffffffffffffffff16908060040160009054906101000a900473ffffffffffffffffffffffffffffffffffffffff16908060050160009054906101000a900473ffffffffffffffffffffffffffffffffffffffff16908060050160149054906101000a900460ff16908060060154905088565b60016020528060005260406000206000915090508060000160009054906101000a900473ffffffffffffffffffffffffffffffffffffffff16908060000160149054906101000a900460ff16908060000160159054906101000a900460ff16905083565b600160003373ffffffffffffffffffffffffffffffffffffffff1673ffffffffffffffffffffffffffffffffffffffff16815260200190815260200160002060000160159054906101000a900460ff16610afc576040517f08c379a0000000000000000000000000000000000000000000000000000000008152600401610af390611b1f565b60405180910390fd5b600060026000848152602001908152602001600020905082816000015414610b59576040517f08c379a0000000000000000000000000000000000000000000000000000000008152600401610b5090611b8b565b60405180910390fd5b60016003811115610b6d57610b6c611643565b5b826003811115610b8057610b7f611643565b5b03610c835760016004811115610b9957610b98611643565b5b600160003373ffffffffffffffffffffffffffffffffffffffff1673ffffffffffffffffffffffffffffffffffffffff16815260200190815260200160002060000160149054906101000a900460ff166004811115610bfb57610bfa611643565b5b14610c3b576040517f08c379a0000000000000000000000000000000000000000000000000000000008152600401610c3290611c1d565b60405180910390fd5b338160020160006101000a81548173ffffffffffffffffffffffffffffffffffffffff021916908373ffffffffffffffffffffffffffffffffffffffff160217905550610ee1565b60026003811115610c9757610c96611643565b5b826003811115610caa57610ca9611643565b5b03610dad5760026004811115610cc357610cc2611643565b5b600160003373ffffffffffffffffffffffffffffffffffffffff1673ffffffffffffffffffffffffffffffffffffffff16815260200190815260200160002060000160149054906101000a900460ff166004811115610d2557610d24611643565b5b14610d65576040517f08c379a0000000000000000000000000000000000000000000000000000000008152600401610d5c90611caf565b60405180910390fd5b338160030160006101000a81548173ffffffffffffffffffffffffffffffffffffffff021916908373ffffffffffffffffffffffffffffffffffffffff160217905550610ee0565b600380811115610dc057610dbf611643565b5b826003811115610dd357610dd2611643565b5b03610edf5760036004811115610dec57610deb611643565b5b600160003373ffffffffffffffffffffffffffffffffffffffff1673ffffffffffffffffffffffffffffffffffffffff16815260200190815260200160002060000160149054906101000a900460ff166004811115610e4e57610e4d611643565b5b14610e8e576040517f08c379a0000000000000000000000000000000000000000000000000000000008152600401610e8590611d41565b60405180910390fd5b338160040160006101000a81548173ffffffffffffffffffffffffffffffffffffffff021916908373ffffffffffffffffffffffffffffffffffffffff160217905550610ede816000015461117c565b5b5b5b818160050160146101000a81548160ff02191690836003811115610f0857610f07611643565b5b02179055507fd9a86b644eb5f5b43cc8a700849852481080361c7a4b00ba646d1b46c5585f958383604051610f3e929190611d61565b60405180910390a1505050565b60005481565b610f596112e0565b6002600083815260200190815260200160002060405180610100016040529081600082015481526020016001820160009054906101000a900473ffffffffffffffffffffffffffffffffffffffff1673ffffffffffffffffffffffffffffffffffffffff1673ffffffffffffffffffffffffffffffffffffffff1681526020016002820160009054906101000a900473ffffffffffffffffffffffffffffffffffffffff1673ffffffffffffffffffffffffffffffffffffffff1673ffffffffffffffffffffffffffffffffffffffff1681526020016003820160009054906101000a900473ffffffffffffffffffffffffffffffffffffffff1673ffffffffffffffffffffffffffffffffffffffff1673ffffffffffffffffffffffffffffffffffffffff1681526020016004820160009054906101000a900473ffffffffffffffffffffffffffffffffffffffff1673ffffffffffffffffffffffffffffffffffffffff1673ffffffffffffffffffffffffffffffffffffffff1681526020016005820160009054906101000a900473ffffffffffffffffffffffffffffffffffffffff1673ffffffffffffffffffffffffffffffffffffffff1673ffffffffffffffffffffffffffffffffffffffff1681526020016005820160149054906101000a900460ff16600381111561115557611154611643565b5b600381111561116757611166611643565b5b81526020016006820154815250509050919050565b60006002600083815260200190815260200160002090506003808111156111a6576111a5611643565b5b8160050160149054906101000a900460ff1660038111156111ca576111c9611643565b5b1461120a576040517f08c379a000000000000000000000000000000000000000000000000000000000815260040161120190611dd6565b60405180910390fd5b8060010160009054906101000a900473ffffffffffffffffffffffffffffffffffffffff1673ffffffffffffffffffffffffffffffffffffffff166108fc82600601549081150290604051600060405180830381858888f19350505050158015611278573d6000803e3d6000fd5b507f7f5bfe3018715b26a7067888a5c42912fbb3485170b8154ea9a448661f2f0de2828260010160009054906101000a900473ffffffffffffffffffffffffffffffffffffffff1683600601546040516112d493929190611df6565b60405180910390a15050565b60405180610100016040528060008152602001600073ffffffffffffffffffffffffffffffffffffffff168152602001600073ffffffffffffffffffffffffffffffffffffffff168152602001600073ffffffffffffffffffffffffffffffffffffffff168152602001600073ffffffffffffffffffffffffffffffffffffffff168152602001600073ffffffffffffffffffffffffffffffffffffffff1681526020016000600381111561139857611397611643565b5b8152602001600081525090565b600080fd5b600581106113b757600080fd5b50565b6000813590506113c9816113aa565b92915050565b6000602082840312156113e5576113e46113a5565b5b60006113f3848285016113ba565b91505092915050565b600073ffffffffffffffffffffffffffffffffffffffff82169050919050565b6000611427826113fc565b9050919050565b6114378161141c565b811461144257600080fd5b50565b6000813590506114548161142e565b92915050565b6000602082840312156114705761146f6113a5565b5b600061147e84828501611445565b91505092915050565b600081519050919050565b600082825260208201905092915050565b6000819050602082019050919050565b6000819050919050565b6114c6816114b3565b82525050565b60006114d883836114bd565b60208301905092915050565b6000602082019050919050565b60006114fc82611487565b6115068185611492565b9350611511836114a3565b8060005b8381101561154257815161152988826114cc565b9750611534836114e4565b925050600181019050611515565b5085935050505092915050565b6000602082019050818103600083015261156981846114f1565b905092915050565b61157a816114b3565b811461158557600080fd5b50565b60008135905061159781611571565b92915050565b600080604083850312156115b4576115b36113a5565b5b60006115c285828601611445565b92505060206115d385828601611588565b9150509250929050565b6115e6816114b3565b82525050565b600060208201905061160160008301846115dd565b92915050565b60006020828403121561161d5761161c6113a5565b5b600061162b84828501611588565b91505092915050565b61163d8161141c565b82525050565b7f4e487b7100000000000000000000000000000000000000000000000000000000600052602160045260246000fd5b6004811061168357611682611643565b5b50565b600081905061169482611672565b919050565b60006116a482611686565b9050919050565b6116b481611699565b82525050565b6000610100820190506116d0600083018b6115dd565b6116dd602083018a611634565b6116ea6040830189611634565b6116f76060830188611634565b6117046080830187611634565b61171160a0830186611634565b61171e60c08301856116ab565b61172b60e08301846115dd565b9998505050505050505050565b6005811061174957611748611643565b5b50565b600081905061175a82611738565b919050565b600061176a8261174c565b9050919050565b61177a8161175f565b82525050565b60008115159050919050565b61179581611780565b82525050565b60006060820190506117b06000830186611634565b6117bd6020830185611771565b6117ca604083018461178c565b949350505050565b600481106117df57600080fd5b50565b6000813590506117f1816117d2565b92915050565b6000806040838503121561180e5761180d6113a5565b5b600061181c85828601611588565b925050602061182d858286016117e2565b9150509250929050565b6118408161141c565b82525050565b61184f81611699565b82525050565b6101008201600082015161186c60008501826114bd565b50602082015161187f6020850182611837565b5060408201516118926040850182611837565b5060608201516118a56060850182611837565b5060808201516118b86080850182611837565b5060a08201516118cb60a0850182611837565b5060c08201516118de60c0850182611846565b5060e08201516118f160e08501826114bd565b50505050565b60006101008201905061190d6000830184611855565b92915050565b600082825260208201905092915050565b7f5573657220616c72656164792072656769737465726564000000000000000000600082015250565b600061195a601783611913565b915061196582611924565b602082019050919050565b600060208201905081810360008301526119898161194d565b9050919050565b60006040820190506119a56000830185611634565b6119b26020830184611771565b9392505050565b7f556e617574686f72697a656420726f6c65000000000000000000000000000000600082015250565b60006119ef601183611913565b91506119fa826119b9565b602082019050919050565b60006020820190508181036000830152611a1e816119e2565b9050919050565b7f4e487b7100000000000000000000000000000000000000000000000000000000600052601160045260246000fd5b6000611a5f826114b3565b91507fffffffffffffffffffffffffffffffffffffffffffffffffffffffffffffffff8203611a9157611a90611a25565b5b600182019050919050565b6000606082019050611ab160008301866115dd565b611abe6020830185611634565b611acb6040830184611634565b949350505050565b7f55736572206e6f74207265676973746572656400000000000000000000000000600082015250565b6000611b09601383611913565b9150611b1482611ad3565b602082019050919050565b60006020820190508181036000830152611b3881611afc565b9050919050565b7f4f72646572206e6f7420666f756e640000000000000000000000000000000000600082015250565b6000611b75600f83611913565b9150611b8082611b3f565b602082019050919050565b60006020820190508181036000830152611ba481611b68565b9050919050565b7f4f6e6c7920737570706c6965722063616e206d61726b2061732073686970706560008201527f6400000000000000000000000000000000000000000000000000000000000000602082015250565b6000611c07602183611913565b9150611c1282611bab565b604082019050919050565b60006020820190508181036000830152611c3681611bfa565b9050919050565b7f4f6e6c79206469737472696275746f722063616e206d61726b2061732064656c60008201527f6976657265640000000000000000000000000000000000000000000000000000602082015250565b6000611c99602683611913565b9150611ca482611c3d565b604082019050919050565b60006020820190508181036000830152611cc881611c8c565b9050919050565b7f4f6e6c792072657461696c65722063616e206d61726b20617320636f6d706c6560008201527f7465640000000000000000000000000000000000000000000000000000000000602082015250565b6000611d2b602383611913565b9150611d3682611ccf565b604082019050919050565b60006020820190508181036000830152611d5a81611d1e565b9050919050565b6000604082019050611d7660008301856115dd565b611d8360208301846116ab565b9392505050565b7f4f72646572206e6f7420636f6d706c6574656400000000000000000000000000600082015250565b6000611dc0601383611913565b9150611dcb82611d8a565b602082019050919050565b60006020820190508181036000830152611def81611db3565b9050919050565b6000606082019050611e0b60008301866115dd565b611e186020830185611634565b611e2560408301846115dd565b94935050505056fea2646970667358221220cb34f85a877279773f9bb697da2ced785a4aa4dcce3ceca17525805b87c59e0864736f6c63430008180033",
  "linkReferences": {},
  "deployedLinkReferences": {}
}